:020000040800F2
:10000000F008002015040008190200081B0200086F
:100010001F02000823020008270200080000000059
:100020000000000000000000000000002B0200089B
:100030002D020008000000002F0200083102000815
:100040002F0400082F0400082F0400082F040008C4
:100050002F0400082F0400082F0400082F040008B4
:100060002F0400082F0400082F0400082F040008A4
:100070002F0400082F0400082F0400082F04000894
:100080002F0400082F0400082F0400082F04000884
:100090002F0400082F0400082F0400082F04000874
:1000A0002F040008032900082F0400082F0400086B
:1000B000272D00083F2D0008572D00082F040008A9
:1000C0002F0400082F0400082F0400082F04000844
:1000D0002F0400082D2400082F0400082F04000816
:1000E0002F0400082F0400082F0400082F04000824
:1000F0002F0400082F0400082F0400082F04000814
:100100002F0400082F0400086F2D00082F0400089A
:100110002F0400082F0400082F0400082F040008F3
:100120002F0400082F0400082F0400082F040008E3
:1001300000F002F800F03AF80AA090E8000C8244BF
:100140008344AAF10107DA4501D100F02FF8AFF29C
:10015000090EBAE80F0013F0010F18BFFB1A43F0A5
:10016000010318471435000034350000103A24BF4D
:1001700078C878C1FAD8520724BF30C830C144BF0C
:1001800004680C607047000000230024002500264E
:10019000103A28BF78C1FBD8520728BF30C148BFEA
:1001A0000B6070471FB51FBD10B510BD03F045F8BB
:1001B0001146FFF7F7FF00F009F803F063F803B406
:1001C000FFF7F2FF03BC02F0D7F8000002F06AF874
:1001D0004FF4A06000F03EF94FF4E13002F0DAF89D
:1001E00002F06AF902F0B0FF02F0D6FD02F03CFB2B
:1001F00002F0E5FB02F052FC02F0A4FC02F019FD53
:1002000002F0ECFD04E0012002F06FF90149086002
:10021000F9E7000000000020704700BFFEE700BFC4
:10022000FEE700BFFEE700BFFEE77047704770477C
:10023000704700000CB50020019000906C480068E9
:1002400040F480306A49086000BF6948006800F4E3
:10025000003000900198401C0190009818B9019856
:10026000B0F5A06FF1D16248006800F4003010B121
:100270000120009001E0002000900098012843D167
:100280005C48006840F010005A4908600846006861
:1002900020F0030008600846006840F00200086093
:1002A00053484068524948600846406848600846DC
:1002B000406840F4806048600846406820F47C1044
:1002C00048600846406840F4E81048600846006806
:1002D00040F08070086000BF4548006800F0007082
:1002E0000028F9D04248406820F0030040494860A7
:1002F0000846406840F00200486000BF3C48406843
:1003000000F00C000828F9D10CBD10B5FFF792FFE2
:1003100010BD10B53648006840F00100344908604F
:10032000084640683449084031494860084600683A
:10033000324908402E4908600846006820F48020B1
:1003400008600846406820F4FE0048604FF41F0033
:100350008860FFF7DAFF4FF000602949086010BDA0
:1003600010B5002100200022214B5B6803F00C0136
:1003700021B1042906D0082928D107E0214B224CBD
:10038000236027E01F4B204C236023E0184B5B6861
:1003900003F47010164B5B6803F48032022303EB06
:1003A000904022B9194B4343174C23600DE0104B8A
:1003B0005B6803F4003323B1144B4343124C2360B6
:1003C00003E0104B4343104C236003E00D4B0E4CF5
:1003D000236000BF00BF064B5B68C3F303130C4CE4
:1003E000E15C094B1B68CB40074C236010BD00004B
:1003F00000100240002002400000FFF8FFFFF6FE60
:1004000008ED00E000127A006800002000093D00BD
:100410006C0000200948804709480047FEE7FEE7D6
:10042000FEE7FEE7FEE7FEE7FEE7FEE7FEE7FEE7A4
:1004300004480549054A064B7047000013030008AD
:1004400031010008F0020020F0080020F004002034
:10045000F004002031490143314A1160704770B502
:10046000002100230F22C47804B32D4C246804F427
:10047000E064C4F5E064210AC1F10403CA40447891
:1004800004FA03F18478144021430901254C0678CD
:10049000A155047804F01F050124AC4005786D11C6
:1004A000AD0005F1E025C5F8004109E0047804F04D
:1004B0001F050124AC401C4D0678761145F82640F6
:1004C00070BD1A4A0A400243154B1B1F1A60704741
:1004D00039B1134A121D12680243114B1B1D1A60D9
:1004E00006E00F4A121D126882430D4B1B1D1A6055
:1004F0007047042808D14FF0E021096941F0040158
:100500004FF0E022116107E04FF0E021096921F08E
:1005100004014FF0E0221161704700000000FA056D
:100520000CED00E000E400E080E100E080FFFF1F50
:1005300010B50446FA48844208D10121401500F064
:1005400055FD0021601500F051FD17E0F54884428B
:1005500008D10121001500F049FD0021201500F00F
:1005600045FD0BE0F048844208D10121C80300F0AA
:100570003DFD00214FF4004000F038FD10BD30B5C6
:100580000246002000235068E84C20400D790C689A
:1005900044EA0524204350609068E54C2040D1E9AE
:1005A00002542C434D7944EA450420439060D06ABC
:1005B00020F470000C7C641EE4B2234340EA035034
:1005C000D06230BD00210160017141718160C16064
:1005D00001210174704721B1826842F001028260FA
:1005E00003E0826822F001028260704721B18268D4
:1005F00042F48072826003E0826822F4807282603A
:10060000704710B50023CBB21AB144681C43446054
:1006100002E044689C43446010BD816841F00801D9
:1006200081607047014600208A6802F008020AB122
:10063000012000E000207047816841F004018160E2
:100640007047014600208A6802F004020AB10120C6
:1006500000E00020704721B1826842F4A00282606D
:1006600003E0826822F4A002826070470146002005
:100670008A6802F480020AB1012000E0002070477D
:1006800010B50A4600210023416821F46041531E41
:1006900041EA4331416010BD21B1426842F4006239
:1006A000426003E0426822F4006242607047F0B5A5
:1006B00004460D4600200021092D11DDE068A5F15A
:1006C0000A0606EB4607072606FA07F18843A5F156
:1006D0000A0606EB460603FA06F10843E0600CE062
:1006E000206905EB4507072606FA07F1884305EB65
:1006F000450603FA06F108432061072A0FDA606B0A
:10070000561E06EB86071F2606FA07F18843561E7B
:1007100006EB860605FA06F10843606322E00D2A1F
:100720000FDA206BD61F06EB86071F2606FA07F1A5
:100730008843D61F06EB860605FA06F108432063B8
:1007400010E0E06AA2F10D0606EB86071F2606FA06
:1007500007F18843A2F10D0606EB860605FA06F1BD
:100760000843E062F0BD21B1826842F480128260E9
:1007700003E0826822F48012826070470146C86CF0
:1007800080B2704766484C300068704721B14268BB
:1007900042F48062426003E0426822F48062426078
:1007A000704721B1426842F48052426003E04268DF
:1007B00022F48052426070470A460021816821F489
:1007C000E04111438160704721B1826842F40042E8
:1007D000826003E0826822F400428260704721B1A7
:1007E000826842F40212826003E0826822F40212FC
:1007F00082607047014600208A6802F400120AB144
:10080000012000E000207047F0B5044615460020A6
:1008100000220026092911DDE068A1F10A0707EB93
:10082000470C072707FA0CF29043A1F10A0707EBE0
:10083000470703FA07F21043E0600CE0206901EB80
:10084000410C072707FA0CF2904301EB410703FA2A
:1008500007F210432061A06BC0F30156EF1C06F1B4
:10086000010CA7EB0C0707EB870C1F2707FA0CF20C
:100870009043EF1C06F1010CA7EB0C0707EB870771
:1008800001FA07F21043A063F0BD10B50A4600213B
:100890000023816B21F44011531E41EA035181630F
:1008A00010BD08B5002300930090009B0B440093FB
:1008B000009B1A6008BD08B5024600200090009217
:1008C00001F12800009B184400900098006880B255
:1008D00008BD0A4600214168164B1940114341608A
:1008E00070474162826270470A460021416821F0E8
:1008F0001F0111434160704740B10949083109683F
:1009000041F40001064A0832116007E00449083149
:10091000096821F40001024A0832116070470000A2
:100920000024014000280140003C0140FFFEF0FF90
:10093000FDF7F1FFFFFD3FFF0246002013680B406B
:100940000BB1012000E000207047CA4302607047ED
:1009500070B502460020002300240B125568CEB269
:1009600005EA060415681D4015B10CB1012000E030
:10097000002070BD00220A12D343036070470000BC
:1009800010B50446CC48844208D10121042000F06F
:100990002DFB0021042000F029FB46E0C7488442DB
:1009A00008D10121082000F021FB0021082000F0DF
:1009B0001DFB3AE0C248844208D10121102000F01A
:1009C00015FB0021102000F011FB2EE0BD488442F1
:1009D00008D10121202000F009FB0021202000F097
:1009E00005FB22E0B848844208D10121402000F0F4
:1009F000FDFA0021402000F0F9FA16E0B3488442E5
:100A000008D10121802000F0F1FA0021802000F0BF
:100A1000EDFA0AE0AE48844207D10121801500F0CA
:100A2000E5FA0021A01500F0E1FA10BD10B5012192
:100A3000084600F0DBFA0021012000F0D7FA10BDD3
:100A40002DE9F04102460025002600200023002465
:100A5000002791F803C00CF00F0591F803C00CF0CB
:100A6000100CBCF1000F03D091F802C04CEA050550
:100A700091F800C0BCF1000F31D0146800202BE0C9
:100A80004FF0010C0CFA00F3B1F800C00CEA0306B9
:100A90009E4220D183004FF00F0C0CFA03F7BC43A9
:100AA00005FA03FC4CEA040491F803C0BCF1280FDA
:100AB00006D14FF0010C0CFA00FCC2F814C00AE099
:100AC00091F803C0BCF1480F05D14FF0010C0CFAAE
:100AD00000FCC2F810C0401C0828D1D31460B1F843
:100AE00000C0BCF1FF0F34DD546800202EE000F19F
:100AF000080C4FF0010808FA0CF3B1F800C00CEA3A
:100B000003069E4221D183004FF00F0C0CFA03F72D
:100B1000BC4305FA03FC4CEA040491F803C0BCF1A1
:100B2000280F05D100F1080C08FA0CF8C2F814805F
:100B300091F803C0BCF1480F07D100F1080C4FF049
:100B4000010808FA0CF8C2F81080401C0828CED31F
:100B50005460BDE8F0814FF6FF7101800221817081
:100B60000421C17070470246002093680B400BB10E
:100B7000012000E0002070470146886880B270477D
:100B800002460020D3680B400BB1012000E000209A
:100B900070470146C86880B2704701617047416183
:100BA00070470AB1016100E041617047C160704760
:100BB0004FF480320A438261816182618269826975
:100BC000704702460020434B18684FF68073184068
:100BD00040EA021008433F4B186070473E49C86125
:100BE0007047F0B50A46002300240021002500F0DC
:100BF0000046B6F1004F02D1364EF16901E0354EA4
:100C00007168C0F3034583B200F44016B6F5401F87
:100C100008D121F070612F4E766826F070662D4F56
:100C20007E6012E000F48016B6F5801F06D1032620
:100C300006FA05F4A14341F0706106E0460D360165
:100C400003FA06F6B14341F0706122B1460D360158
:100C500003FA06F6314300F00046B6F1004F02D128
:100C60001C4EF16101E01B4E7160F0BD30B50022F9
:100C70008B071C0F0F2303FA04F2164B08338C105A
:100C800053F824309343134C08348D1044F8253026
:100C900023468C1053F824308C07240F00FA04F4F8
:100CA00023430C4C08348D1044F8253030BD0A49DC
:100CB000DC3108607047000000080140000C014072
:100CC000001001400014014000180140001C0140C8
:100CD000002001400000014000002042DF48006881
:100CE00040F00100DD49086008464068DC490840E2
:100CF000DA49486008460068DA490840D749086080
:100D00000846006820F4802008600846406820F407
:100D1000FE0048604FF41F0088607047CF490968A3
:100D200021F48031CD4A11601146096821F48021F7
:100D30001160B0F5803F03D0B0F5802F0ED106E0F2
:100D4000C649096841F48031C44A116007E0C349CB
:100D5000096841F4A021C14A116000E000BF00BF52
:100D6000704710B501460022002300204A11012AD5
:100D700002D1BA4C236806E0022A02D1B74C236A9A
:100D800001E0B64C636A01F01F02012494401C404C
:100D90000CB1012000E0002010BD38B5002000900B
:100DA0000024002500BF3120FFF7DBFF0546009837
:100DB000401C00900098B0F5A06F01D0002DF2D03B
:100DC0003120FFF7CEFF08B1012400E000242046C7
:100DD00038BD01460020A14A106820F0F80040EA22
:100DE000C10010607047A0490860704702460020AB
:100DF0009A4B586820F47C1042EA01031843974B41
:100E00005860704798490866704701460020934A29
:100E1000506820F003000843506070478F484068D6
:100E200000F00C007047014600208C4A506820F00A
:100E3000F00008435060704701460020874A506820
:100E400020F4E06008435060704701460020834A68
:100E5000506820F4605040EAC1005060704729B1EA
:100E60007E4A527A02437D4B5A7204E07B4A527AA0
:100E700082437A4B5A7270477B49D8310860704779
:100E800001460020754A506820F4404008435060F5
:100E900070470021714A20321170704A82F8201088
:100EA000012802D004280AD104E001216B4A203233
:100EB000117005E00521694A2032117000E000BF81
:100EC00000BF70476949086070476449096A014377
:100ED000624A11627047654944390860704730B50D
:100EE00000210022002400235C4D6D6805F00C01F8
:100EF00021B1042905D0082923D105E05C4D056006
:100F000022E05B4D05601FE0544D6D6805F47012E2
:100F1000524D6D6805F48034022505EB92421CB9F0
:100F2000544D554305600BE04C4D6D6805F400359C
:100F30001DB1504D5543056002E04D4D55430560D0
:100F400002E04B4D056000BF00BF444D6D6805F0E9
:100F5000F0010909484D6B5C0568DD4045603F4D77
:100F60006D6805F4E061090A434D6B5C4568DD403E
:100F700085603A4D6D6805F46051C90A3E4D6B5C61
:100F80004568DD40C560354D6D6805F44041890B0D
:100F90003A4D6B5CC568B5FBF3F5056130BD29B111
:100FA0002E4A526902432D4B5A6104E02B4A526982
:100FB00082432A4B5A61704729B1284A92690243F9
:100FC000264B9A6104E0254A92698243234B9A6139
:100FD000704729B1214AD2690243204BDA6104E00B
:100FE0001E4AD26982431D4BDA61704729B11B4A00
:100FF000D2680243194BDA6004E0184AD26882438F
:10100000164BDA60704729B1144A12690243134B38
:101010001A6104E0114A12698243104B1A61704749
:1010200012494039086070470F49C86470470B493E
:10103000C87170470948406A40F0807007494862AB
:10104000704701460020054A92680A400AB1012013
:1010500000E000207047014988727047001002408C
:101060000000FFF8FFFFF6FE00004242800442420B
:1010700000127A0000093D007C0000208C00002056
:1010800010B50446FE48844208D10121C014FFF780
:10109000ADFF0021E014FFF7A9FFC4E0B4F1804FD9
:1010A00008D101210846FFF7AEFF00210120FFF71C
:1010B000AAFFB8E0F348844208D101210220FFF7DB
:1010C000A2FF00210220FFF79EFFACE0EE48844221
:1010D00008D101210420FFF796FF00210420FFF72B
:1010E00092FFA0E0E948844208D101210820FFF7DF
:1010F0008AFF00210820FFF786FF94E0E44884423D
:1011000008D101211020FFF77EFF00211020FFF7FA
:101110007AFF88E0DF48844208D101212020FFF7D0
:1011200072FF00212020FFF76EFF7CE0DA48844246
:1011300008D101214014FFF759FF00216014FFF787
:1011400055FF70E0D548844209D10121C804FFF75A
:101150004DFF00214FF40020FFF748FF63E0D04827
:10116000844209D101210805FFF740FF00214FF417
:101170008010FFF73BFF56E0CA48844209D10121A5
:101180004805FFF733FF00214FF40010FFF72EFF53
:1011900049E0C548844208D101214020FFF733FFD0
:1011A00000214020FFF72FFF3DE0C048844208D1D6
:1011B00001218020FFF727FF00218020FFF723FF78
:1011C00031E0BB48844208D101218015FFF71BFFA5
:1011D0000021A015FFF717FF25E0B648844209D18A
:1011E00001210804FFF702FF00214FF48030FFF7D0
:1011F000FDFE18E0B048844209D101214804FFF700
:10120000F5FE00214FF40030FFF7F0FE0BE0AB4895
:10121000844208D101218804FFF7E8FE00214FF441
:101220008020FFF7E3FE10BD00220288944B984215
:101230000ED0994B98420BD0B0F1804F08D0914B13
:10124000984205D0904B984202D0904B984204D1DE
:101250004FF68F731A404B881A438D4B984207D034
:101260008C4B984204D04FF6FF431A40CB881A4368
:1012700002808B8883850B880385814B98420BD035
:10128000854B984208D08B4B984205D08A4B9842A8
:1012900002D08A4B984201D10B7A038601238382C4
:1012A000704770B5002400220023058C4FF6FE76AF
:1012B00035400584028C8388048B4FF68F752C4053
:1012C000B51E2C400D882C43751E2A400D892A43DB
:1012D0004D882A436A4DA8420BD06F4DA84208D0D2
:1012E000744DA84205D0744DA84202D0734DA84257
:1012F00013D14FF6F7752A404D892A434FF6FB75F7
:101300002A408D882A434FF6FF652B404FF6FF5544
:101310002B408D892B43CD892B4383800483CD883B
:101320008586028470BD70B5002400220023058CE0
:101330004FF6EF7635400584028C8388048B48F69F
:10134000FF752C404FF6FF452C400D884FF6FF7679
:1013500006EA05252C434FF6DF752A400D8906EA7B
:1013600005152A434D8806EA05152A43444DA8422F
:1013700002D0494DA8421DD14FF67F752A404D89B4
:101380004FF6FF7606EA05152A434FF6BF752A4049
:101390008D8806EA05152A434FF6FF352B404FF29C
:1013A000FF752B408D8906EA85052B43CD8906EA1A
:1013B00085052B4383800483CD880587028470BD17
:1013C00070B5002400220023058C4FF6FF663540DF
:1013D0000584028C8388848B4FF68F752C404FF6E2
:1013E000FC752C400D882C434FF6FF552A400D8983
:1013F0004FF6FF7606EA05252A434D8806EA0525BD
:101400002A431F4DA84202D0234DA8421DD14FF2BE
:10141000FF752A404D894FF6FF7606EA05252A43D7
:101420004FF6FF352A408D8806EA05252A434EF6F9
:10143000FF752B404DF6FF752B408D8906EA05158B
:101440002B43CD8906EA05152B4383808483CD8801
:101450008587028470BD70B5002200230024058CAE
:101460004EF6FF7635400584038C8488828B48F6DF
:10147000FF752A404FF6FF452A400D8820E0000006
:10148000002C01400004004000080040000C004017
:10149000001000400014004000340140004C0140A6
:1014A000005001400054014000180040001C004062
:1014B000002000400040014000440140004801403D
:1014C0004FF6FF7606EA05252A434DF6FF752B40B9
:1014D0000D8906EA05352B434D8806EA05352B4371
:1014E000FA4DA84202D0FA4DA84208D14BF6FF753A
:1014F0002C408D894FF6FF7606EA85152C438480B3
:101500008283CD88A0F84050038470BD828B4FF257
:10151000FF331A408283828B4FF6FF7303EA012365
:101520001A4382837047F0B50C461546002200210D
:101530000026078C4EF6FF7C07EA0C070784828B97
:10154000018C4FF6FF7707EA043640F6FF473A4032
:101550004FF6FF7707EA05273A434FF6FF7707EA8A
:1015600003373A43D94FB8420ED0D94FB8420BD0C7
:10157000B0F1804F08D0D74FB84205D0D64FB8420F
:1015800002D0D64FB84206D14DF6FF77394046F427
:101590008057394305E047F6FF57394044F48057F8
:1015A000394382830184F0BD828B4FF6F3731A4076
:1015B0008283828B0A4382837047F0B50C461546BE
:1015C000002200210026078C4FF6FF6C07EA0C076B
:1015D0000784828B018C4FF6FF7707EA04264FF6CB
:1015E0000C773A404FF6FF7707EA03172F433A4349
:1015F000B64FB8420ED0B64FB8420BD0B0F1804FC4
:1016000008D0B44FB84205D0B34FB84202D0B34F60
:10161000B84206D14FF6FF57394046F48077394338
:1016200005E04FF2FF57394044F480773943828315
:101630000184F0BD028B4FF2FF331A400283028B0C
:101640004FF6FF7303EA01231A4302837047F0B594
:101650000C461546002200210026078C4FF6EF7C31
:1016600007EA0C070784028B018C4FF6FF7707EA25
:10167000041640F6FF473A404FF6FF7707EA033774
:101680003A434FF6FF7707EA05273A438F4FB842B0
:101690000ED08F4FB8420BD0B0F1804F08D08D4F95
:1016A000B84205D08C4FB84202D08C4FB84206D118
:1016B0004FF6DF77394046F01007394305E04FF623
:1016C0005F77394044F01007394302830184F0BD4D
:1016D000028B4FF6F3731A400283028B0A43028394
:1016E0007047F0B50C46154600220021068C4FF6D7
:1016F000FE773E400684028B018C4FF60C7632401A
:101700007E1C06EA03162E433243704EB0420ED0C2
:101710006F4EB0420BD0B0F1804F08D06D4EB0424A
:1017200005D06D4EB04202D06C4EB04206D14FF69D
:10173000FD76314044F00106314305E04FF6F57681
:10174000314044F00106314302830184F0BD70B59D
:1017500005460C465D4885420ED05D4885420BD05B
:10176000B5F1804F08D05B48854205D05A48854284
:1017700002D05A48854200D100E000BF208850B90D
:101780002389A28861882846FFF7ABFFE1882846B5
:10179000FFF79EFF25E0208804280AD12389A2882C
:1017A00061882846FFF753FFE1882846FFF742FF8C
:1017B00017E0208808280AD12389A2886188284652
:1017C000FFF7FBFEE1882846FFF7EEFE09E02389DC
:1017D000A28861882846FFF7A6FEE1882846FFF721
:1017E00095FE70BD2DE9F04105460C460026012707
:1017F000608808B9022600E00026A088012801D1EF
:10180000022700E001272088A0B92389A2886188E7
:101810002846FFF766FFE1882846FFF759FF23892E
:101820003A4631462846FFF712FFE1882846FFF77F
:1018300001FF13E02389A28861882846FFF707FF8C
:10184000E1882846FFF7F6FE23893A4631462846C6
:10185000FFF747FFE1882846FFF73AFFBDE8F08130
:101860000A884B881A438B881A43CB881A430B8902
:101870001A434B891A438B891A43A0F844207047B6
:101880004FF6FF71818000210180C180418001728B
:1018900070470021018041808180C18001814181A8
:1018A0008181C181704700210180418001218180B7
:1018B0000021C18001817047002101804180818029
:1018C000C18001814181818170470000002C01406D
:1018D000003401400004004000080040000C0040BB
:1018E00021B1028842F00102028004E002884FF632
:1018F000FE731A400280704731B1B0F8442042F4C0
:101900000042A0F8442005E0B0F84420C2F30E02E3
:10191000A0F8442070471AB183890B43838102E009
:1019200083898B43838170478182704741EA020338
:10193000A0F8483070471AB183890B43838102E0D5
:1019400083898B438381704701894FF6F872114078
:10195000018170470A46002101894FF68F731940B3
:1019600011430181704730B504460D462946204693
:10197000FFF7F0FF208940F00700208130BD2DE9FE
:10198000F04104460D4616461F46602D06D13B46E3
:10199000012231462046FFF75AFE05E03B46012270
:1019A00031462046FFF79DFE29462046FFF7D2FF2D
:1019B000208940F007002081BDE8F08130B50C4659
:1019C00000210189C9B24FF6FF7505EA03251543C9
:1019D00025432943018130BD2DE9F04105460E46DE
:1019E00017469846002443463A4631462846FFF7B4
:1019F000E5FF2C894FF6F870044044F007044FF6D9
:101A00008F70044044F070042C81BDE8F081F0B583
:101A100004460D4616461F463B463246294620469A
:101A2000FFF7CCFF208940F480402081F0BD018584
:101A3000828270470A46002101884FF68F73194051
:101A4000114301807047F0B50C4615461E46002133
:101A5000002200230189028B038C4FF6F87739406E
:101A600021434FF6FC473A4040F201173A434FF604
:101A7000DD773B404FF6FF7707EA06172F433B43DE
:101A8000018102830384F0BD0A460021018B4FF6D9
:101A90008F7319401143018370470A460021018B5F
:101AA00048F6FF7319404FF6FF7303EA0223194308
:101AB000018370470A460021818B4FF68F731940CE
:101AC0001143818370470A460021818B48F6FF73DA
:101AD00019404FF6FF7303EA0223194381837047CD
:101AE00021B1028842F08002028004E002884FF6B1
:101AF0007F731A400280704721B1828842F004024D
:101B0000828004E082884FF6FB731A40828070471F
:101B100021B1828842F00802828004E082884FF678
:101B2000F7731A408280704721B1828842F0010227
:101B3000828004E082884FF6FE731A4082807047EC
:101B40000A460021018B4FF6F773194011430183B8
:101B500070470A460021018B4FF2FF7319404FF680
:101B6000FF7303EA02231943018370470A460021E9
:101B7000818B4FF6F77319401143818370470A46F2
:101B80000021818B4FF2FF7319404FF6FF7303EA78
:101B900002231943818370470A460021018B4FF6C7
:101BA000FB7319401143018370470A460021018BE2
:101BB0004FF6FF3319404FF6FF7303EA0223194330
:101BC000018370470A460021818B4FF6FB73194051
:101BD0001143818370470A460021818B4FF6FF3302
:101BE00019404FF6FF7303EA0223194381837047BC
:101BF0000A460021018B4FF67F7319401143018380
:101C000070470A460021018BC1F30E014FF6FF73A6
:101C100003EA02231943018370470A460021818B9E
:101C20004FF67F7319401143818370470A460021A4
:101C3000818BC1F30E014FF6FF7303EA02231943B0
:101C4000818370470A460021018C4FF6FD731940CD
:101C50001143018470470A460021018C4FF6F77347
:101C600019401143018470470A460021018C4FF648
:101C7000DF7319404FF6FF7303EA0213194301841F
:101C800070470A460021018C4FF67F7319404FF6CA
:101C9000FF7303EA02131943018470470A460021C7
:101CA000018C4FF6FF5319404FF6FF7303EA0223EE
:101CB0001943018470470A460021018C4FF2FF73DB
:101CC00019404FF6FF7303EA02231943018470475A
:101CD0000A460021018C4DF6FF7319404FF6FF7341
:101CE00003EA023319430184704730B5002301240D
:101CF0008C40A3B2048C9C430484048C02FA01F54A
:101D0000ADB22C43048430BD30B5002304248C4094
:101D1000A3B2048C9C430484048C02FA01F5ADB296
:101D20002C43048430BD70B50346002000241846BF
:101D3000183001258D40ACB21D8CA5431D8409B11E
:101D4000082909D100EB6100056825F070050560E0
:101D50000568154305600EE00D1FC5F34E052844C8
:101D6000056825F4E045056005684FF6FF7606EA4C
:101D700002263543056070BD21B1028842F002029F
:101D8000028004E002884FF6FD731A40028070471B
:101D900021B1028842F00402028004E002884FF67A
:101DA000FB731A400280704721B1828842F08002A2
:101DB000828004E082884FF67F731A4082807047E9
:101DC00002884FF6F7731A40028002880A430280A5
:101DD000704782884FF68F731A40828082880A4348
:101DE0008280704702894FF6F8731A400281028997
:101DF0000A430281704702894FF67F731A400281BD
:101E000002890A4302817047818470478185704747
:101E1000818670470187704781877047A0F840101E
:101E2000704702884FF6FF431A40028002880A4337
:101E3000028070470146888E70470146088F7047C0
:101E40000146888F70470146B1F84000704701464F
:101E5000888C70470146088D704702460020138A1F
:101E60000B400BB1012000E000207047CA43028202
:101E7000704730B50246002000230024158A05EA89
:101E80000103958905EA010413B10CB1012000E0BA
:101E9000002030BDCA4302827047000010B50446DE
:101EA000FB48844209D101218803FFF79FF80021F4
:101EB0004FF48040FFF79AF832E0F648844209D1A7
:101EC00001214804FFF79FF800214FF40030FFF78D
:101ED0009AF825E0F048844209D101218804FFF7EF
:101EE00092F800214FF48020FFF78DF818E0EB48BE
:101EF000844209D10121C804FFF785F800214FF47D
:101F00000020FFF780F80BE0E548844208D101216A
:101F10000805FFF778F800214FF48010FFF773F8F9
:101F200010BD2DE9F04786B005460E460024A246B6
:101F300000BFA1460027B08900B100BF2F462C8A00
:101F40004CF6FF700440F08804432C82AC894EF6B6
:101F5000F3100440B0883189084371890843044371
:101F6000AC81AC8A4FF6FF400440B0890443AC8298
:101F700001A8FEF7B4FFC648874202D1DDF810A0E1
:101F800001E0DDF80CA0A88900F4004040B10AEBA4
:101F9000CA0000EB0A1031684900B0FBF1F807E015
:101FA0000AEBCA0000EB0A1031688900B0FBF1F8B7
:101FB0006420B8FBF0F004012009642101FB1089C2
:101FC000A88900F4004040B1322000EBC900B0FB0A
:101FD000F1F000F00700044308E0322000EB0910A4
:101FE0006421B0FBF1F000F00F0004432C8106B037
:101FF000BDE8F0874FF41651016000218180C18057
:1020000001810C21418100218181704710B5024678
:102010000020108A4FF2FF0318400B884C8823439E
:102020008C882343CC8823431843108210BD0021A1
:10203000018041808180C180704721B1828942F452
:102040000052828104E082894DF6FF731A4082813A
:102050007047F0B50346002400260025002040F616
:102060006A17B94200D100BF1846C1F3421401F00B
:102070001F06012707FA06F5012C01D10C3004E0F8
:10208000022C01D1103000E014301AB107682F4340
:10209000076002E00768AF430760F0BD1AB1838AAA
:1020A0000B43838202E0838A8B4383827047028AD8
:1020B0004FF6F0731A400282028A0A430282704786
:1020C00082894FF2FF731A40828182890A4382819A
:1020D000704721B1828942F00202828104E0828944
:1020E0004FF6FD731A4082817047028A4FF6DF7304
:1020F0001A400282028A0A430282704721B1028A90
:1021000042F48042028204E0028A4BF6FF731A40D6
:1021100002827047C1F308028280704701468888B6
:10212000C0F308007047818941F001018181704747
:10213000028BD2B20283028B42EA012202837047F1
:10214000028B02F47F420283028B0A4302837047B0
:1021500021B1828A42F02002828204E0828A4FF614
:10216000DF731A408282704721B1828A42F01002E6
:10217000828204E0828A4FF6EF731A4082827047AF
:1021800021B1828A42F00802828204E0828A4FF6FC
:10219000F7731A408282704721B1828942F400426B
:1021A000828103E08289C2F30E028281704721B1ED
:1021B000828A42F40062828204E0828A4FF2FF73D4
:1021C0001A4082827047828A4FF6FB731A408282DD
:1021D000828A0A438282704721B1828A42F00202D7
:1021E000828204E0828A4FF6FD731A408282704731
:1021F00002460020B1F5007F00D100BF13880B40DC
:102200000BB1012000E00020704701F40072B2F52C
:10221000007F00D100BFCA430280704770B50246FC
:10222000002400230025002040F66A16B14200D1A8
:1022300000BFC1F3421501F01F03012606FA03F3A4
:10224000012D02D19689334006E0022D02D1168A73
:10225000334001E0968A33400C12012606FA04F45A
:102260001688344013B10CB1012000E0002070BD8D
:1022700010B50022002340F66A14A14200D100BF2D
:102280000A1201249440A3B2DC43048010BD000074
:10229000003801400044004000480040004C00402D
:1022A0000050004010B56FF00400FEF722F92E48F0
:1022B00000682E49B0FBF1F02D49087008460078FF
:1022C00000EB4001C1EBC0104FF6FF7101EAC00006
:1022D0002849088010BD0146254A12784A434FF02C
:1022E000E0235A6100229A611A46126942F0010203
:1022F0001A6100BF4FF0E022106900F001021AB12C
:1023000000F48032002AF5D04FF0E022126922F06A
:1023100001024FF0E0231A6100229A6170470146E2
:10232000144A12884A434FF0E0235A6100229A610E
:102330001A46126942F001021A6100BF4FF0E02212
:10234000106900F001021AB100F48032002AF5D0C1
:102350004FF0E022126922F001024FF0E0231A61EF
:1023600000229A61704700006800002000127A0085
:10237000900000209200002000BF704700BF4A4A32
:10238000128802F04002002AF9D0C2B2464B1B1D4F
:102390001A80704710B586B00446012144F204004B
:1023A000FEF70AFE4FF40070ADF8140003208DF81C
:1023B000160018208DF8170005A93C48FEF740FBD1
:1023C0004FF48060ADF8140004208DF8170005A9C3
:1023D0003648FEF735FB25208DF8000003208DF8E8
:1023E00001008DF8020001208DF803006846FEF719
:1023F00036F801940020ADF80800ADF80A00ADF8F9
:102400000C00ADF810000C20ADF80E0001A9264814
:10241000FFF787FD012240F225512348FFF719FEFF
:1024200001212148FFF709FE06B010BD10B540F2AA
:1024300025511D48FFF7F2FE10B31B48FFF76EFE53
:10244000C4B21B48008800F40040C8B9184800888E
:1024500000F4804060B10A2C03D0002014490880A9
:1024600020E01348008840F400401149088019E03A
:102470000D2C06D10E48008840F480400C4908809D
:1024800010E00B480088C0F30D000A490C540848BE
:102490000088401C0649088008460088C72801DDDE
:1024A0000020088010BD00000038014000080140F5
:1024B00098000020CC00002008B501210820FEF77C
:1024C0007BFD01210846FEF777FD01213748FEF725
:1024D00088FB4FF44C70ADF8000048208DF80300E5
:1024E00069463348FEF7ACFA08BD10B5044614B18E
:1024F0000120304908702F480078002839D04FF467
:1025000000712B48FEF72FFB78B120212848FEF7F9
:102510002AFB50B14FF480712548FEF724FB20B10F
:1025200010212348FEF71FFB18BB0A20FFF7F7FE18
:102530000020204908704FF400711D48FEF713FB7E
:1025400008B9012010BD20211948FEF70CFB08B97D
:102550000220F7E74FF480711548FEF704FB08B935
:102560000320EFE710211248FEF7FDFAE0B904203E
:10257000E8E74FF400710E48FEF7F5FA012813D191
:1025800020210B48FEF7EFFA01280DD1010208487F
:10259000FEF7E9FA012807D110210548FEF7E3FA12
:1025A000012801D1034908700020CBE70001300069
:1025B000000C01409A000020F8B507460E460024A2
:1025C000384600F0EBFE00909DF800202146641C88
:1025D0007D4842549DF801202146641C42549DF8D8
:1025E00002202146641C42549DF803202146641CAD
:1025F0004254304600F0D2FE00909DF80020214663
:10260000641C714842549DF801202146641C4254C8
:102610009DF802202146641C42549DF80320204668
:10262000611CCCB268490A5400222046611CCCB21D
:1026300065490A542046611CCCB263490A54802281
:102640002046611CCCB260490A547F222046611C9E
:10265000CCB25D490A5400250DE05B48415D5B4802
:10266000FFF758FD00BF40215848FFF7C1FD012882
:10267000F9D1681CC5B2A542EFDBF8BD2DE9F843DE
:1026800081460E46174698460024484600F086FECE
:1026900000909DF800202146641C4D4842549DF84E
:1026A00001202146641C42549DF802202146641CEE
:1026B00042549DF803202146641C4254304600F0E9
:1026C0006DFE00909DF800202146641C4048425455
:1026D0009DF801202146641C42549DF802202146A9
:1026E000641C42549DF803202046611CCCB238493A
:1026F0000A54384600F052FE00909DF80020204613
:10270000611CCCB232490A549DF801202046611C5C
:10271000CCB22F490A549DF802202046611CCCB24D
:102720002B490A549DF803202046611CCCB228494D
:102730000A54404600F032FE00909DF800202046EA
:10274000611CCCB222490A549DF801202046611C2C
:10275000CCB21F490A549DF802202046611CCCB21D
:102760001B490A549DF803202046611CCCB218492D
:102770000A5400222046611CCCB215490A54204656
:10278000611CCCB212490A5480222046611CCCB292
:102790000F490A547F222046611CCCB20C490A54CE
:1027A00000250DE00A48415D0848FFF7B3FC00BF73
:1027B00040210648FFF71CFD0128F9D1681CC5B26D
:1027C000A542EFDBBDE8F88394010020003801400A
:1027D000C60100200146072323EA01021202FE4B34
:1027E00018684FF6FF031840FC4B18431043FA4B90
:1027F000186070472DE9F0410746884614461D468B
:102800002846FFF7E7FFC5F1040007FA00F60F209E
:10281000284100EA0800064306F00F06E21704EB21
:10282000D2625211920002F1E022D2F80021214638
:10283000E31704EBD3635B11A4EB431C012303FAFE
:102840000CF31A432046E31704EBD3635B119B00A0
:1028500003F1E023C3F80021E148005D40EA0610DF
:10286000DF490855BDE8F0811FB50121C802FEF718
:10287000A3FB6320ADF8080041F61F40ADF804004B
:102880000020ADF80A00ADF8060001A9D548FEF712
:10289000CBFC01221146D348FFF73DF819208DF8F3
:1028A000000000208DF8010003208DF802000120B7
:1028B0008DF803006846FDF7D2FD0121C948FFF7F6
:1028C0000FF81FBD0146022906D0032909D00429AB
:1028D0000BD0052911D10CE04FF08042928C10B240
:1028E0000DE0C14A128810B209E0C04A128810B245
:1028F00005E0BF4A128810B201E0002000BF00BF0F
:10290000704710B50121B748FFF7B3FA002855D03A
:102910000520FFF7D7FFB7490860B74800680528CA
:102920001CD10021B348006800F0AAFBB34908603D
:1029300040F61743B248008802B20021AD48008833
:1029400000B2FFF79BFE40F6B83000F0DFFAAB486C
:10295000006800F0B0FA0020A7490860A6480068A7
:10296000401CA549086008210D2000F046FCA44940
:1029700008800846008800F029FD044600F058FB56
:10298000A049086040F6B83000F0C0FA9D480068E1
:1029900000F091FA9948006840429A490968084451
:1029A0009949086040F6B83000F0B0FA96480068DF
:1029B00000F081FA01218B48FFF76CFA10BD00B5D9
:1029C00087B001210846FEF7F7FA01218F48FEF78C
:1029D00008F901218E48FEF704F901210846FEF7A7
:1029E000F8FA01210420FEF7E7FA01210820FEF79A
:1029F000E3FA4FF40040ADF8000003208DF8020028
:102A000004208DF8030069468248FEF719F8082073
:102A1000ADF8000003208DF8020004208DF80300BB
:102A200069467D48FEF70CF804A8FEF729FF002050
:102A3000ADF810004FF6FF70ADF814000020ADF8AF
:102A40001600ADF8120004A94FF08040FEF7ECFB31
:102A500000231A4603214FF08040FEF7F4FF01A83F
:102A6000FEF721FF0620ADF80C0001A94FF08040D1
:102A7000FEF76DFE01218807FFF7F8F901221146E4
:102A80009007FEF748FF00214FF08040FFF7BCF9A8
:102A900001218807FEF724FF07B000BD00B587B00D
:102AA00001210220FEF795FA01210420FEF784FAA5
:102AB000C020ADF8000003208DF8020004208DF83E
:102AC000030069465348FDF7BBFF04A8FEF7D8FE94
:102AD0000020ADF810004FF6FF70ADF81400002094
:102AE000ADF81600ADF8120004A93F482438FEF7EF
:102AF0009BFB00231A4603213B482438FEF7A3FF23
:102B000001A8FEF7D0FE0620ADF80C0001A936485A
:102B10002438FEF71CFE012133482438FFF7A6F9BC
:102B20000122114630482438FEF7F5FE00212E48D8
:102B30002438FFF769F901212B482438FEF7D0FE2D
:102B400007B000BD00B587B001210420FEF741FAAF
:102B500001210820FEF730FAC020ADF80000032064
:102B60008DF8020004208DF8030069462A48FDF71D
:102B700067FF04A8FEF784FE0020ADF810004FF6B2
:102B8000FF70ADF814000020ADF81600ADF812008B
:102B900004A916482438FEF747FB00231A460321F0
:102BA00012482438FEF74FFF01A8FEF77CFE0620EE
:102BB000ADF80C0001A90D482438FEF7C8FD01212D
:102BC0000A482438FFF752F90122114607482438F1
:102BD000FEF7A1FE002121E00CED00E00000FA0567
:102BE00000E400E0002C01402404004024080040E0
:102BF000240C00409C000020A40000205C00002069
:102C0000640000206000002058000020000118002F
:102C10000002300000080140000C01405A482438EE
:102C2000FFF7F2F8012158482438FEF759FE07B0A3
:102C300000BD00B587B001210820FEF7CAF90121C7
:102C40000420FEF7B9F90320ADF800008DF802006A
:102C500004208DF8030069464C48FDF7F1FE04A8F6
:102C6000FEF70EFE0020ADF810004FF6FF70ADF835
:102C700014000020ADF81600ADF8120004A9444875
:102C8000FEF7D2FA00231A4603214148FEF7DBFE85
:102C900001A8FEF708FE0620ADF80C0001A93C488B
:102CA000FEF755FD01213A48FFF7E0F801221146F1
:102CB0003748FEF730FE00213548FFF7A5F801211F
:102CC0003348FEF70DFE07B000BD0146022906D0CD
:102CD00003290DD0042912D0052920D116E04FF088
:102CE0008042928C10B200224FF080439A8418E008
:102CF000284A128810B20022264B1A8011E0224A7C
:102D0000128810B20022204B1A800AE0204A243296
:102D1000128810B200221E4B24331A8001E00020DA
:102D200000BF00BF70474FF08040008A4FF08040E6
:102D3000008A20F001004FF080410882704715485A
:102D40001438008813481438008820F00100114915
:102D50001439088070470C48143800880A48143821
:102D6000008820F00100084914390880704708489D
:102D70001030008806481030008820F00100044917
:102D8000103108807047000024080040000801400E
:102D9000000C00402404004008B501210C20FEF77F
:102DA0000BF94FF20600ADF8000003208DF8020089
:102DB00010208DF803006946CA48FDF741FE4FF424
:102DC0001060ADF8000003208DF8020010208DF88F
:102DD00003006946C448FDF733FE08BD00B589B05D
:102DE00001211020FEF7E8F801214803FEF7E4F87E
:102DF0004FF47070ADF8200003208DF822001820E9
:102E00008DF8230008A9B948FDF71AFE41F61F40C6
:102E1000ADF818000020ADF81400ADF81A00ADF8B8
:102E200016008DF81C0005A9B148FEF7FDF97020C9
:102E3000ADF804000120ADF806000020ADF80A004E
:102E4000ADF80C004FF48070ADF8100001A9A8484F
:102E5000FEF727FA01A9A648FEF765FA01A9A448DA
:102E6000FEF7AEFA01A9A248FEF7F5FA0821A0483C
:102E7000FEF766FE08219E48FEF76BFE08219C487F
:102E8000FEF774FE08219A48FEF779FE0121984862
:102E9000FEF726FD01219648FEF722FE0121944807
:102EA000FEF72AFD09B000BD0146002901DA4842BB
:102EB00000E00846704770B50446002C11DA204641
:102EC000FFF7F2FF85B229468948FEF7A3FF4FF4CA
:102ED00080518448FDF761FE4FF400518148FDF7B1
:102EE0005EFE002C11DD2046FFF7DEFF85B229468D
:102EF0007F48FEF78FFF4FF400517A48FDF74DFEF3
:102F00004FF480517748FDF74AFE70BD7949096852
:102F10004242914202DA4142764A1160754909689B
:102F2000814201DD73490860704730B5724C2468F6
:102F30004542AC4202DA44426F4D2C606E4C24682C
:102F4000844201DD6C4C20606C4C24684D42AC42E4
:102F500002DA4C42694D2C60684C24688C4201DDD9
:102F6000664C2160664C24685542AC4202DA5442F9
:102F7000634D2C60624C2468944201DD604C2260F9
:102F80005C4C24685D42AC4202DA5C42594D2C60D4
:102F9000584C24689C4201DD564C236030BD2DE91D
:102FA000F05F04460D46601B5649086008460068FD
:102FB00000F0F4F9834654480168584600F01AFAC4
:102FC000804650490968514A1268881A00F0E6F9AB
:102FD00083464F480168584600F00CFA8146414646
:102FE00000F05EF907464B48006800F0D7F98246CA
:102FF000394600F055F9064600F0B4F94549086035
:1030000008460068B0F5E15F02DD4FF4E15008606A
:103010004048006810F5E15F02DA3F483D4908602A
:1030200038480068394908603A480068BDE8F09FB0
:103030002DE9F04705463949284600F0A7FA04462D
:1030400037480168204600F0A1FA36490860364842
:1030500001683448006800F0CDF9804621463348C5
:10306000006800F0C7F98146414600F019F90746AB
:1030700000F078F906462A4804603046BDE8F0873B
:103080002DE9F04104460D46601B00F087F9284900
:103090000860284801682648006800F077FA264949
:1030A00008602348006823490860244801682248D2
:1030B000006800F09FF980461D48006880F00047D6
:1030C0001F480168384600F095F90646414600F071
:1030D0005DFA1C4908600846006800F043F9BDE845
:1030E000F0810000000C0140000801400010014088
:1030F00000340140580000204C0000205000002007
:1031000054000020A800002008000020B00000208B
:1031100004000020AC000020E0E3FFFF0070414508
:10312000B4000020B8000020280000202400002067
:10313000C4000020C0000020C800002010000020B3
:103140000C000020BC00002000B587B001214FF426
:103150000470FDF731FF4FF40040FDF791FE0820A9
:10316000ADF8040000208DF8070001A92E48FDF7F6
:1031700067FC2E48FDF7DCF9002002908DF80C006A
:103180008DF80D004FF46020049000200590012080
:103190008DF8180002A92548FDF7F1F9012123480F
:1031A000FDF719FA2148FDF738FA00BF1F48FDF76F
:1031B00039FA0028FAD11D48FDF73EFA00BF1B4836
:1031C000FDF73FFA0028FAD107B000BD10B504465C
:1031D0000723012221461548FDF769FA012113480A
:1031E000FDF739FA00BF02211048FDF7A5FB0028C2
:1031F000F9D00E48FDF7C2FA10BD2DE9F04107469F
:103200000C460025002608E03846FFF7DFFF05449E
:10321000C820FFF760F8701CC6B2A642F4DBB5FB0D
:10322000F4F080B2BDE8F0810010014000240140BC
:1032300070477047704770477047754600F02CF82C
:10324000AE4605006946534620F00700854618B093
:1032500020B5FDF7EDF8BDE820404FF000064FF037
:1032600000074FF000084FF0000B21F00701AC46BB
:10327000ACE8C009ACE8C009ACE8C009ACE8C009DA
:103280008D46704710B50446AFF300802046BDE878
:103290001040FCF794BF00000048704790020020E7
:1032A00090EA010F48BF81F0004100F17681421A97
:1032B0003CBF801A89184FEAD0524FF07F4C1CEA6D
:1032C000410FA2EBD15318BF9CEA026F00F03B8084
:1032D0004FF0004C4CEA00204CEA012121FA03FC9B
:1032E00010EB0C0C1ED202F1FF325FEA1C2040EB07
:1032F000C25038BF70471CF07F0F4FEA400C18BF18
:10330000BCF17F4F38BF7047C3F12003994008BF1D
:1033100020F00100BCF17F4F38BF7047A0F1C040E2
:1033200000F02FB94FEA3C00000A40EBC25028BF22
:103330001CF0FF0F4FEA400CE6D018BFBCF17F4FE6
:1033400038BF7047EAE79CEA026F05D010EA5C0FCD
:1033500008BF00F00040704710B500F0CCF800BF87
:1033600064FBBE3E41000B0ED3F19E0208D950F41F
:1033700000034FEA032323FA02F048BF404270479C
:1033800010B500F0B8F800BF4992248000207047C3
:103390006FF0004282EA20007047000010F0004108
:1033A00048BF4042B0FA80F310FA03F2C3F19D0324
:1033B0000BD051EAC35101EB1220530638BF7047BE
:1033C00000F1010008BF20F001007047B0FA80F35F
:1033D00010FA03F2C3F19D030AD0D90501EB1220C4
:1033E000530638BF704700F1010008BF20F001000C
:1033F000704700004FF47F0C1CEAD0121EBF1CEA7D
:10340000D11392EA0C0F93EA0C0F00F0478090EA78
:10341000010F48BF42F480724FF0004C4CEA00208C
:103420004CEA012102EB0302A0FB0113A2F500020A
:10343000002918BF43F001035B0028BF4FEA3303A4
:1034400042EB22425FEA132C4CEBC2502EBFBCEB86
:10345000436FB2F57C0F70474FEA036CBCF1004F2D
:1034600008BF20F00100B2F57C0F38BF70470BD5C4
:1034700082F0FF0212F5803FC8BF704700F1C040E4
:10348000D8BF00F00040704700F5000C5FEA4C0C1C
:1034900048BF7047B0F1C04000F073B890EA010F28
:1034A0000CEAD11348BF42F48072624538BF6345CD
:1034B00004D280EA010000F00040704710B500F02F
:1034C0001AF800BF8900013E00F007B800F009B803
:1034D0005FEA410C5FEA1C6C08D080EA010000F052
:1034E00050B85FEA400C5FEA1C6CF6D14FF0004028
:1034F000A0F5800070470EF1020E2EF0030E5EF86C
:10350000044B244204D44FEA4102B2F17F4F11D858
:103510004FEA4003B3F17F4F0CD80ED14FEAD07C75
:10352000B2F17F4F0CEB4C0C0CF1020C08BF4CEBD2
:10353000D17C04E04FF0080C01E04FEAD17C0CEBA9
:103540004C0324FA03F404F00704B4F1040C06D28B
:103550000EEB840CBDE810404CF0010C6047DFE836
:103560000CF0070802024FF00040A0F5800010BDEB
:103570000846420018BFD2F1807288BF00F00040B8
:1035800010BDFF2141EAD050C005704790EA010FFD
:1035900048BF81F000413FF58AAE421A04D882F05C
:1035A0000042A0EB020011444FEAD0524FF07F4C92
:1035B0001CEA410FA2EBD15318BF9CEA026F4AD01C
:1035C0004FF0004C4CEA00204CEA012121FA03FCA8
:1035D000B0EB0C0C0FD412F0FE0F36D05FEA4C00AB
:1035E0001DD5001240EBC25038BF70471CF03F0F92
:1035F00018BF70470BE0A2F101025FEA1C2040EB0C
:10360000C25038BF70471CF07F0F18BF7047C3F11E
:103610002003994014BF401E20F00100704780082D
:103620004FEA122308BF7047B0FA80FCA2EB0C02ED
:10363000CCF1280C60FA0CF093EA122F04BF00EBD7
:10364000C25070474FEAC3707047130A5FEADC103C
:1036500008BF7047F6E79CEA026F04D010EA5C0FDF
:1036600008BF0020704710B5FFF745FF40DFF63E6A
:1036700081F00040704700009836000800000020EC
:10368000CC0000006C01000864370008CC0000206A
:10369000240800008801000800000000CDCC4C4048
:1036A000AE47813F000020410000024300000000BF
:1036B00000000000000000000000000000000C42BC
:1036C0000000C842000000000000000000000000F0
:1036D00010270000000000000000000000000000B3
:1036E00032000000000000000000000000000000A8
:1036F00000000000000000000000000000000000CA
:1037000000A24A04000000000000000001020304BF
:103710000607080900000000010203040102030477
:103720000607080902040608000000000000000067
:103730000000010000000000000000000000000088
:103740000000000000000000000000000000000079
:103750000000000000000000000000000000000069
:043760000000000065
:0400000508000131BD
:00000001FF
